:400000000080002011000000010A0000010A000008B5044B1A6803F53F5302331A6000F00FFD00BFFA46004010B5054C237833B9044B13B10448AFF300800123237010BD55
:400040005081FF1F00000000A42A0000084B10B51BB108490848AFF300800848036803B910BD074B002BFBD0BDE81040184700BF000000005481FF1FA42A0000C880FF1F56
:400080000000000008B501F02FF810F0200F1AD001F024F80A2809D10B4B1A78D2B200210A48815401225A70197008BD064B1B78DBB23E2B07D804490B78DBB25A1CD2B23A
:4000C0000A70024AD05408BD6C81FF1F9081FF1F08B500F089FF08BD71B370B40C469A422CD9D11AB4F5487F03D2650805D11CB903E04FF4C87500E001250DB3854205D98C
:4001000000FB01F0B0FBF5F0101A0BE0661BB04207D32C1B044404FB01F1B1FBF5F0184400E018461146904200D801461846994200D3084680B204E018467047184600E02B
:40014000184670BC704700BF2DE9F843074691469846084600F0CEFC322000F045FF00251AE043464A4639462846FFF7B5FF032802D8C0F34F0600E00226801B84B20120C8
:4001800000F0C4FC3046FFF7A3FF002000F0BEFC2046FFF79DFF0135BD42E2D3BDE8F88338B505460C46104601F0A8F9104901F0FDF94FF0785101F0F9F901F047FB44B1F0
:4001C0004FF4486303FB04F30A4AB2FBF3F39BB201E04EF66023032B00D8042303EB830292B2934200D91A462946FFF7ADFF38BD000048430087930310B586B01446CBB2CE
:40020000C1B2184600F032FA002304E006A9194401F8142C0133E25C42B10F2BF6DD05E006AA1A44202102F8141C01330F2BF7DD00238DF8143001A800F04EFA06B010BD23
:40024000B42800D9B42000EB800043009B080648A0FB033080080A30142800D91420092800D80A2080B27047176CC11608B5012805D10846FFF7E4FF00F0A6FF08BD0228A0
:4002800004D10846FFF7DCFF01F012F808BD00BF10B588B003784D2B02D0532B37D017E18E4B03F10802009204330DF11F028C49023001F04FFB032825D19DF81F00874CE3
:4002C0002289A188522814BF00200120FFF768FF844800F01DFF9DF81F0000F00DFF824800F016FF6268814902A801F00FFB02A800F00EFFA2687E4905A801F007FB05A8EA
:4003000000F006FFE7E07B4800F002FFE3E0734A02F10C0310327849023001F01BFB022840F0D280754800F0F3FE6C4B1B69D3BB6A4BDB6883B94FF47A7000F045FF4FF4A4
:400340007A7000F03BFE4FF47A7000F0B1FF4FF47A7000F033FE9DE05A2B10D14FF47A7000F032FF4FF47A7000F028FE40F2DC5000F09EFF4FF47A7000F020FE8AE0B42B6C
:4003800040F088804FF47A7000F01EFF4FF47A7000F014FE4FF4FA6000F08AFF4FF47A7000F00CFE76E05A2B39D14C4BDB6883B940F2DC5000F008FF4FF47A7000F0FEFDF7
:4003C0004FF47A7000F074FF4FF47A7000F0F6FD60E05A2B10D140F2DC5000F0F5FE4FF47A7000F0EBFD40F2DC5000F061FF4FF47A7000F0E3FD4DE0B42B4BD140F2DC5040
:4004000000F0E2FE4FF47A7000F0D8FD4FF4FA6000F04EFF4FF47A7000F0D0FD3AE0B42B38D12E4BDB6883B94FF4FA6000F0CCFE4FF47A7000F0C2FD4FF47A7000F038FFB5
:400440004FF47A7000F0BAFD24E05A2B10D14FF4FA6000F0B9FE4FF47A7000F0AFFD40F2DC5000F025FF4FF47A7000F0A7FD11E0B42B0FD14FF47A6000F0A6FE4FF47A7070
:4004800000F09CFD4FF4FA6000F012FF4FF47A7000F094FD114C2269194902A801F036FA02A800F035FEE268114905A801F02EFA05A800F02DFE218A0120FFF7D7FEA18992
:4004C0000220FFF7D3FE06E00E4800F021FE02E00D4800F01DFE08B010BD00BF6C81FF1FA82A0000B42A0000D02A0000D82A0000E42A0000EC2A0000342B00003C2B0000A1
:40050000542B00005C2B0000842B000008B562B600F0D0FD202000F0DBFD154800F024FE00F0A4FE00F016FF124800F0F1FD00F03FFB0023022210210F48007800F024F8B1
:4005400000F0DAF800F082F80C4A01210020FFF753FE0B4B5B7813F0FF0FFAD072B60022074B5A700748FFF793FE62B6F1E700BF85000000AC2B0000CC80FF1FD42B0000BC
:400580006C81FF1F9081FF1F10B4064C20700648017006490A70064A13700822054B1A7010BC7047E281FF1FE781FF1FE881FF1FE481FF1FE181FF1F10B50C46002100F0C0
:4005C00073FC204600F0CCFC00F0AEFC10BD00BF08B5044B19780143034B1878FFF7ECFF08BD00BFE181FF1FE281FF1F10B5044640F00400FFF7ECFF012000F0F5FC04F009
:40060000FB00FFF7E5FF322000F0EEFC10BD00BF10B50446FFF7DCFF2046FFF7E7FF10BD38B50D4600F0F0030401E4B243EA0100FFF7EEFF44EA0500FFF7EAFF38BD00BFA9
:4006400008B50021FFF7ECFF08BD00BF08B50120FFF7F6FF022000F0B1FC08BD08B50220FFF7EEFF022000F0A9FC08BD30B585B005460C460C4B0FCB0DF1100E0EE90F00A2
:400680000A4B1B78A34201D25C1EE4B204AB03EB840454F8100C284460F07F00C0B2FFF7CFFF05B030BD00BFE82B0000E881FF1F08B5054B187840F00400187040F0080000
:4006C000FFF7BEFF08BD00BFE381FF1F08B50121FFF7A6FF08BD00BF70B5064601F066F90546002403E0305DFFF7F0FF0134EBB29C42F8D370BD00BF08B50022254B1A707E
:40070000254B1B78012B02D90821224A1170234A127832B1012B04D11E4A137843F004031370322000F04AFC1D4B1878FFF750FF4FF47A7000F042FC3020FFF769FF41F20D
:40074000941000F051FC3020FFF762FF41F2941000F04AFC3020FFF75BFF962000F044FC2020FFF755FF0B4B187840F02000FFF767FF04220B4B1A70FFF79AFFFFF766FF52
:400780000222094B1A700620FFF75AFFFFF766FF08BD00BFE681FF1FE881FF1FE481FF1FE181FF1FE381FF1FE581FF1FFEE700BFF0B40022174611E050F82760F3B226F08C
:4007C000FF0608E001EB420511F812406D78A5550132013BDBB2002BF4D101371C2FEBD9F0BC7047064B1B78DBB203F00701054A11701B09013213704422034B1A707047FE
:40080000CF0100496E5800407658004008B50A46002101F072F808BD38B51722274B1A80182327490B7002310A80264A1370192502321580023213700222234B1A70082231
:400840004FF040231A70032103F5007319701F4B1B78DBB21E490B701E4B1A8041F25122023B1A8000240CE01B4B1B7803F0010343EA440404F003044FF4F07000F078FDD0
:40088000013D0DB1032CEFD115B90320FFF78EFF124B4FF480721A8007221A70002210490A704820023108701A700222033B1A700C4A137843F00703137038BD80400040E6
:4008C00082400040864000400043004008010049A146004022420040254200400440004006400040A243004008B500F0FBFF08BD38B572B6334A137843F004031370002410
:400900000CE0314D630019194A0011462A44084691882858FFF77AFF0134E4B2072CF0D900240BE02849A3001819420088180622416B006BFFF7D8FF0134E4B2002CF1D092
:4009400022494FF09040FFF733FF214A137843F0020313701032137843F0020313701D4C237843F040032370A2F58632513A137843F010031370082217491848FFF7B4FFCE
:400980000A2217491748FFF7AFFF082216491748FFF7AAFF164A137843F008031370154D61232B70FFF738FF81232B700122124B1A70FFF717FF0E2221461048FFF794FFFA
:4009C00038BD00BFE8460040F82B00007400004803500140A0430040A405004802510040AC050048C0510040B805004812510040224300400048004004000840B04300401D
:400A000008B500F043FF03680C2B00D1FEE7FEE708B5094B1A681044084BC31A802B02DC054B186005E000F031FF0C2303604FF0FF32104608BD00BFD480FF1F0082FF1F2F
:400A400008B5104E104D16E029686B68AC68002204E051F8040B43F8040B0432A242F8D1E868002203E0002143F8041B04328242F9D11035013E002EE6D100F00DFFFFF716
:400A800045FDFEE701000000142E000008B5104A104B1A60104A136843F40073136000230AE0032B03D80D4A52F8231000E00C490C4A42F8231001332F2BF2D90A4B1A78CC
:400AC0000A4B1A70074A0A4B1A60FFF711FF08BD0004FA050CED00E014ED00E000000000010A00000080FF1FBC760040C080FF1F08ED00E0044A137803F0FE0300F0010063
:400B000018431070704700BFC0510040044A137803F0FD03400000F00200184310707047C051004038B50222114B1A7081220E3B1A70082202331A700F2511331D700024B3
:400B400001331C704FF400420A4B1A600721284600F068FA0849284600F050FA1022074B1A70074B1C70074B1C70074B1C7038BDD649004080E100E0D90B0000E981FF1FD7
:400B8000EE81FF1FF681FF1FEC81FF1F08B500F0F7FB064A137843F0040313701032137843F00403137000F0EFFB08BDA543004008B5074B1B7823B9FFF7B4FF0122044B67
:400BC0001A70FFF7E3FF4FF40042024B1A6008BD8081FF1F00E100E038B5A54B1C78A54B1B7813F0400F00F03A81E4B214F0010F00F01D819F4B1B78453B052B00F21481C5
:400C0000DFE813F006008200120112010600DF0004F0DF0504F00A04082C42D1954B1B78DBB2452B35D1944B1B7813F0FF0F10D0924B1B681B78DBB2914A137004228C4B82
:400C40001A7001228F4B1A7046228A4B1A702C46EDE08D4B1B7813F0020F0DD08B4A137843F00A0313706022824B1A704FF40042874B1A602C46DAE0864A137843F0100367
:400C800013701022844B1A700422023B1A702C46CDE00022764B1A704A22764B1A702C46C5E00A2C2BD1794A137843F0A0031370754B1B7813F0020F14D06E4B1B7813F06C
:400CC000080F01D0092300E00A23704A11780B4313706022674B1A704FF400426C4B1A602C46A4E06B4A137843F0100313701022694B1A700422023B1A702C4697E00020E6
:400D000000F05AF92C4692E014F0020F36D15D4B1A78D2B2584B1B78DBB29A4210D2594A1378DBB255490968CB5CDBB254490B7004214F4B197013780133DBB2137076E02E
:400D4000514B1B7813F0020F0CD0504A137843F00A0313706022474B1A704FF400424C4B1A6064E04B4A137843F0100313701022494B1A700422023B1A7058E0424B1B7876
:400D800013F0020F0CD0414A137843F09A0313706022384B1A704FF400423D4B1A6046E03C4A137843F01003137010223A4B1A700422023B1A70354A137843F09003137043
:400DC00035E0364A1378DBB2354908682C490978C9B2C15413780133DBB213701278D2B2304B1B78DBB29A4203D21022204B1A701DE0254B1B7813F0020F0CD0234A13789A
:400E000043F00903137060221A4B1A704FF400421F4B1A600BE01F4A137843F0100313700022134B1A7002E0002000F0C5F814F0200F1CD00F4B1B7813F0080F01D001239A
:400E400000E00223114A11780B431370114A137803F0EF0313701022064B1A7038BD054B1B7813F0100F02D11022024B1A7038BDD7490040E981FF1FED81FF1FF881FF1F87
:400E8000D8490040EC81FF1FF481FF1FEE81FF1F80E100E0D6490040D9490040F681FF1FF081FF1FF581FF1F1A4B1B78DBB2102B29D1194B1B7813F0080F26D14FF4004225
:400EC000164B1A604000C0B229B140F001004922104B1A7002E045220E4B1A70104B1870012201331A700F4B1B7813F0010FFAD00C4B1B7803F00A030A2B08D11022054BD6
:400F00001A700320704702207047012070470020704700BFE981FF1FD949004080E100E0D8490040D74900400A4B1B7813F0040F0ED01023074A13700421023A1170064A05
:400F40001370064B1B7813F0210FFAD00020704702207047D9490040E981FF1FD7490040114B1B7813F0040F1BD0104B18700422013B1A7046220E4B1A700E4B1B7813F01A
:400F8000010FFAD00B4B1B7813F0020F04D16022074B1A70002070476022054B1A70032070470220704700BFD9490040D8490040E981FF1FD749004001BE704710B5044652
:400FC00005E0084B186800F0D3F9A4F50044B4F5004FF6D8034B586800FB04F000F0C8F910BD00BFD880FF1F08B5034B1B7A00FB03F000F0BDF908BDD880FF1F70B504464C
:401000000E46074B1D681F2802D90020FFF7D4FF04F01F04103455F8240045F8246070BD08ED00E038B504460D46072902D90020FFF7C2FF1F2C02D90020FFF7BDFF04F093
:401040001F0000F1604000F564406D01EDB2057038BD00BF7222084B1A70202203F580731A7006225F3B1A70472210331A70002251331A70704700BF8964004010B500F0BF
:401080007FF904460A4A137843F02003137002F58072137843F0100313700232137843F01003137000F06EF8204600F06DF910BD9964004008B5054B1B7823B9FFF7CAFF9A
:4010C0000122024B1A70FFF7D9FF08BD8181FF1F014B1870704700BF89650040014B1878704700BF49650040024B187800F07F00704700BF69650040034B1B7813F0040FC4
:40110000FAD1024B187070476B6500404B65004038B5074B1B782BB938BDFFF7EDFF0134A4B201E005460024285D0028F5D138BD8181FF1F014B1B681864704708ED00E091
:401140004001C0B2014B1870704700BF00E400E00122014B1A60704700E100E00122014B1A60704780E100E010B50446FFF7F6FF2046FFF7DFFF0720FFF7E2FFFFF7E8FF5D
:4011800010BD00BF054A137843F0040313701032137843F004031370704700BFA2430040024A137843F080031370704775640040014B1880704700BF08680040014B188019
:4011C000704700BF88680040014B1880704700BF48680040014B1870704700BF85640040014B1878704700BF65640040014B188880B27047A868004008B501E0FFF7F6FF83
:40120000FFF7EEFF10F0100FF8D108BD10B5154A137803F0C00343F0090313701F32137843F001031370104C237843F00103237044F61F60FFF7BCFF44F61F60FFF7BEFFCA
:4012400040F2DC50FFF7C0FF0020FFF7C3FF00F097F8237843F01003237000F095F8FFF7CBFF10BD756400409564004008B5054B1B7823B9FFF7CAFF0122024B1A70FFF709
:401280008FFF08BD8381FF1F024A137843F080031370704772640040014B1880704700BF04680040014B1880704700BF84680040014B1880704700BF44680040014B187036
:4012C000704700BF83640040014B1878704700BF63640040014B188880B27047A468004008B501E0FFF7F6FFFFF7EEFF10F0100FF8D108BD10B5154A137803F0C00343F026
:40130000090313702032137843F001031370104C237843F00103237044F61F60FFF7BCFF44F61F60FFF7BEFF40F2DC50FFF7C0FF0020FFF7C3FF00F023F8237843F0100319
:40134000237000F021F8FFF7CBFF10BD726400409364004008B5054B1B7823B9FFF7CAFF0122024B1A70FFF78FFF08BD8481FF1F0230800803D000BF01380046FCD1704707
:40138000EFF3108072B6704780F31088704700BF80F0004002E000BF81F0004142001FBF5FEA410392EA030F7FEA226C7FEA236C6AD04FEA1262D2EB1363C1BFD218414029
:4013C00048404140B8BF5B42192B88BF704710F0004F40F4000020F07F4018BF404211F0004F41F4000121F07F4118BF494292EA030F3FD0A2F1010241FA03FC10EB0C00B6
:40140000C3F1200301FA03F100F0004302D5494260EB4000B0F5000F13D3B0F1807F06D340084FEA310102F10102FE2A51D2B1F1004F40EBC25008BF20F0010040EA03008C
:401440007047490040EB000010F4000FA2F10102EDD1B0FA80FCACF1080CB2EB0C0200FA0CF0AABF00EBC25052421843BCBFD0401843704792F0000F81F4000106BF80F430
:4014800000000132013BB5E74FEA41037FEA226C18BF7FEA236C21D092EA030F04D092F0000F08BF0846704790EA010F1CBF0020704712F07F4F04D1400028BF40F00040B6
:4014C000704712F100723CBF00F50000704700F0004343F0FE4040F4000070477FEA226216BF08467FEA23630146420206BF5FEA412390EA010F40F4800070474FF0000357
:4015000004E000BF10F0004348BF40425FEA000C08BF704743F0964301464FF000001CE050EA010208BF70474FF000030AE000BF50EA010208BF704711F0004302D54042DD
:4015400061EB41015FEA010C02BF84460146002043F0B64308BFA3F18053A3F50003BCFA8CF2083AA3EBC25310DB01FA02FC634400FA02FCC2F12002BCF1004F20FA02F225
:4015800043EB020008BF20F00100704702F1200201FA02FCC2F1200250EA4C0021FA02F243EB020008BF20EADC7070474FF0FF0C1CEAD0521EBF1CEAD15392EA0C0F93EA63
:4015C0000C0F6FD01A4480EA010C400218BF5FEA41211ED04FF0006343EA501043EA5111A0FB01310CF00040B1F5000F3EBF490041EAD3715B0040EA010062F17F02FD2A58
:401600001DD8B3F1004F40EBC25008BF20F00100704790F0000F0CF0004C08BF49024CEA502040EA51207F3AC2BFD2F1FF0340EAC250704740F400004FF00003013A5DDCF0
:4016400012F1190FDCBF00F000407047C2F10002410021FA02F1C2F1200200FA02FC5FEA310040F1000053EA4C0308BF20EADC70704792F0000F00F0004C02BF400010F40F
:40168000000F013AF9D040EA0C0093F0000F01F0004C02BF490011F4000F013BF9D041EA0C018FE70CEAD15392EA0C0F18BF93EA0C0F0AD030F0004C18BF31F0004CD8D1EE
:4016C00080EA010000F00040704790F0000F17BF90F0004F084691F0000F91F0004F14D092EA0C0F01D142020FD193EA0C0F03D14B0218BF084608D180EA010000F00040F3
:4017000040F0FE4040F40000704740F0FE4040F4400070474FF0FF0C1CEAD0521EBF1CEAD15392EA0C0F93EA0C0F69D0A2EB030280EA010C49024FEA402037D04FF08053D0
:4017400043EA111143EA10130CF000408B4238BF5B0042F17D024FF4000C8B4224BF5B1A40EA0C00B3EB510F24BFA3EB510340EA5C00B3EB910F24BFA3EB910340EA9C00C1
:40178000B3EBD10F24BFA3EBD10340EADC001B0118BF5FEA1C1CE0D1FD2A3FF650AF8B4240EBC25008BF20F0010070470CF0004C4CEA50207F32C2BFD2F1FF0340EAC25026
:4017C000704740F400004FF00003013A37E792F0000F00F0004C02BF400010F4000F013AF9D040EA0C0093F0000F01F0004C02BF490011F4000F013BF9D041EA0C0195E7A2
:401800000CEAD15392EA0C0F08D142027FF47DAF93EA0C0F7FF470AF084676E793EA0C0F04D14B023FF44CAF08466EE730F0004C18BF31F0004CCAD130F000427FF45CAFB0
:4018400031F000437FF43CAF5FE700BF42000ED2B2F1FE4F0BD34FF09E03B3EB126209D44FEA002343F0004323FA02F070474FF00000704712F1610F01D1420202D14FF0B9
:40188000FF3070474FF00000704700BF014B1868704700BF4881FF1F0E4B70B51E460E4C0025E41AA410A54204D056F8253098470135F8E701F09CFA084B094C1E46E41A6E
:4018C000A4100025A54204D056F8253098470135F8E770BDFC2D0000FC2D0000FC2D0000042E000010B5431E0A44914204D011F8014B03F8014FF8E710BD03460244934218
:4019000002D003F8011BFAE7704700000EB400B54FF402719CB0ADF814106FF00041049107914FF6FF711DAB02900690084853F8042BADF81610006802A9019300F098F8B6
:40194000029B00221A701CB05DF804EB03B070474881FF1F0EB430B59CB01FAC4FF4017254F8045BADF814200290069000F01EF80B4B03900B9300230F9314934FF6FF73ED
:4019800007900848ADF816302A46234602A90068019400F0BDF91CB0BDE8304003B07047A91900004881FF1F00207047034613F8012B002AFBD1181A013870472DE9F0477E
:4019C0008E6882469E420C46914698463ED88A8912F4906F3AD02568096902236F1A656905EB450595FBF3F57B1C43449D4238BF1D4653050FD5294600F0B4FF064698B1A3
:401A00003A462169FFF76EFFA38923F4906343F08003A38113E02A4601F002F8064670B92169504600F052FF0C23CAF80030A3894FF0FF3043F04003A381BDE8F08726610D
:401A40003E44266046466561ED1BA560464528BF464649463246206800F01DFFA36800209B1BA36023681E442660BDE8F08700002DE9F04F9DB003938B8980461C060D466C
:401A800016460DD50B695BB9402100F06BFF2860286118B90C23C8F80030CDE040236B610023099320238DF82930DFF89CB130238DF82A3037463C4614F8013B1BB9B7EBD5
:401AC000060910D003E0252BF9D02746F3E74B46324629464046FFF771FF013000F0A780099B4B4409933B78002B00F0A08000234FF0FF3204930793059206938DF853304F
:401B00001A930126052221784E4800F0B6FE671C049B38B14B4A3C46801A06FA00F018430490EFE7D90644BF20228DF853201A0744BF2B228DF8532022782A2A03D0079A7F
:401B400000210A200BE0039A111D12680391002A10DA524243F00200079204900BE027463B780134303B092B03D800FB02320121F5E701B107923B782E2B1ED17B782A2BD7
:401B80000AD1039B02371A1D1B680392002BB8BF4FF0FF33059310E0002319460593781C0A2407463A780130303A092A03D804FB01210123F5E703B105910322397822485A
:401BC00000F05BFE40B14023CBEB000003FA00F0049B013718430490397806221B487E1C8DF8281000F049FE88B1194B33B9039B073323F007030833039314E003AB009391
:401C00002A46144B04A94046AFF3008007E003AB00932A460F4B04A9404600F043FAB0F1FF3F824603D0099B5344099342E7AB895B0601D4099801E04FF0FF301DB0BDE8E8
:401C4000F08F00BF342C00003A2C00003E2C000000000000BD1900004B1C70B50E46144602D14FF0FF3070BD9389CDB223F020039381536B526883B1A36B9A4207DA236891
:401C80005A1E226003F8016C636801331FE0214600F0BAFD0028F2D0E3E72169236851B1994208D213F8011C8D4204D1013B0132236062600CE0E36304F14403636303235C
:401CC000A3632346226403F8466F236001236360284670BD10B50C46496B69B104F14403994201D000F0F2FD236C00206063636013B1E36B236010BD23694FF0FF3023607A
:401D000000236360A38943F02003A38110BD00002DE9F04FDFF89C9207460D46CA46ADF5257D01930023469347939E4B0DF10C08A2939D4BDFF874B2CDF82081A393147855
:401D4000002C00F02781D9F8003023445B7803F0080303F0FF01F3B16B68002B10DD2B68DAF800001978014449780C0710D5479901330131479169682B6001396960EBE7A1
:401D8000A39B2946384600929847009A0028E6D0561C3246D3E7252C02F1010652D14391459153782A2B02BF1023961C43930A2231783446A1F13003092B06F1010605D894
:401DC000459B02FB0313303B4593F1E70322774800F053FD40B134460123CBEB000003FA00F0439B03434393661C2478672C16D8652C7FD2472C07D8452C7BD2002C00F0D8
:401E0000CB80252C1ED077E05B2C51D002D8582C3ED071E0632C57D0642C3FD06CE0702C32D007D86E2C55D03AD8692C64D1002344933BE0752C31D0782C29D0732C5BD184
:401E400002233FE06B68002B0DDD2B681A78944240F0A08001336A682B60479B013A01336A60479395E7A39B2946384698470028EBD04698002800F08F80AB8913F0400F71
:401E800018BF4FF0FF3089E0439B43F020034393439B43F400734393102302E00A2300E008236E2C449301DD04230BE0032309E03146404600F074FB0646439B43F0400353
:401EC0004393012349931BE0439B43F0400343930023F7E7439AD0063FF55BAF12F0010F019A479B02F104010191126814BF138013604EE70523E5E7032349930A2344935A
:401F00006B68002B03DD439B590611D518E0A39B2946384698470028F5D0AAE7479A013247926A68013A002A6A6013DD01332B602B68DAF800101A780A4452781207EDD48A
:401F4000499B022B0DDC01AB2A4643A9384600F0CFF919E0A39B2946384698470028E7D087E7042B06DC01AB2A4643A9384600F025FA09E00E4B002B3FF40BAF01AB2A46BD
:401F800043A93846AFF30080012803D002287FF400AF6EE7469801E04FF0FF300DF5257DBDE8F08F591C0000D51C00003A2C0000000000004C81FF1F2DE9F04791461F46C3
:401FC0000A698B6806469342B8BF1346C9F8003091F843200C46DDF8208012B10133C9F800302368990642BFD9F800300233C9F80030256815F0060510D104F1190A07E02F
:402000000123524639463046C04701301AD00135E368D9F800209B1A9D42F1DB94F843302268003318BF012392060FD5E118302081F843005A1C94F845102244023382F857
:40204000431003E04FF0FF30BDE8F08704F1430239463046C0470130F4D02268D9F80050E36802F00602042A08BF5D1B2269A3680CBF25EAE57500259342C4BF9B1AED1817
:402080004FF000091A344D4509D00123224639463046C0470130D5D009F10109F3E70020BDE8F0872DE9F04317460A7E85B06E2A984606460C460C9B01F1430E00F0AE8028
:4020C00011D8632A22D009D8002A00F0BB80582A40F0CA8081F84520834955E0642A1ED0692A1CD0C0E0732A00F0B08009D86F2A2ED0702A40F0B8800A6842F020020A6065
:402100003EE0752A24D0782A3AD0ADE01A6801F14205111D1960136884F84230A8E021681A6811F0800F02D0111D196008E011F0400F02F10401196002D0B2F9003000E018
:402140001368002B3CDA2D225B4284F8432037E021681A6811F0800F02D0111D196007E011F0400F02F10401196001D0138800E01368227E5C496F2A14BF0A2208221BE03C
:4021800078225A4984F845202268186812F0800F00F104051D6003D1550601D5038800E00368D00744BF42F0200222601BB9226822F0200222601022002084F8430001E05E
:4021C00049490A226568002DA56008DB206820F0040020602BB9002D7DD175460CE0002B79D07546B3FBF2F002FB1033CB5C05F8013D03460028F5D1082A0BD12368DA070B
:4022000008D5236962689A42DEBF302305F8013C05F1FF35C5EB0E0323612EE008681A6810F0800F496903D0101D1860136808E010F0400F02F104001860136801D0198037
:4022400000E0196000232361754616E01A68111D1960156800216268284600F00EFB08B1401B6060636804E004F1420584F8422001232361002384F84330CDF800803B4698
:4022800003AA21463046FFF797FE013002D14FF0FF3026E023692A4639463046C0470130F5D023689B0710D5002504F1190907E001234A4639463046C0470130E7D00135A0
:4022C000E368039A9B1A9D42F2DBE068039B9842B8BF184605E00B7804F1420584F842308AE705B0BDE8F083452C0000562C00002DE9F84315468A6880460C4632B98A69A9
:40230000002A0CBF01224FF0FF328A602268DFF8A890D10658BF1A684FF000065EBF111D19601768A069F8B923680136DA065EBF2B681B783B702A686B6802F101022A606B
:40234000A26803F1FF3302F1FF326B6058BF0137A260E2B1002BE5DCD4F880312946404698470028DED012E0012806D12B681A7863699B5C002BD7D119E0022807D12B680C
:40238000D9F800201B7813445B781B07CCD5236813F0100305D1E2680132E260A26902B13B70236900201E442661BDE8F883002EEDD1BDE8F88300BF4C81FF1F2DE9F04F4D
:4023C0000C469A46724B87B08346164693E8070003ABA76883E807006E4BA1696E4A04F11C09032918BF1A467B1EB3F5AE7F84BF40F25D13A360236888BF6FF4AE7543F404
:40240000506323604B4600928CBF7F1900274FF000083168019303AB53F828000222097800F02BFA019B002833D0B8F1010F0BD162682AB908226260226842F40072226041
:40244000226822F4A0620CE0B8F1020F0AD1226802F4C061B1F5007F1BD11021616042F480722260A268511EA16092B132685D1C511C316012781A707368013B002B7360F4
:4024800006DCD4F88031314658469847002841D12B4608F10108B8F1030FBAD162680AB90A22626062683D496069891A019300F077F8019B4FF000081D46A36863B33168AC
:4024C00060690A78805C38B3302A226808D1100506D508F1010857B10133013FA36006E022F4106222600B78013505F8013C7368013B002B736003DD33680133336005E07D
:40250000D4F8803131465846984728B9A368013BA360D2E74FF000082368D9050CD54D4508D915F8011C6F1ED4F87C313246584698473D464D4527D0226812F010021BD187
:402540002A70636849465846009EB0472268DAF8003012F0200F07D1D20705D51A1DCAF800201B68188004E01A1DCAF800201B681860E3680133E3602369C9EB050545442B
:402580001D442561002000E0012007B0BDE8F08F682C00000D27000001260000842C000070B50B78441E5E2B13BF4A1C8A1C4B78002108BF012100F1FF0504F8011FAC425C
:4025C000FBD10BB9501E70BD81F001041146C4540D784A1C2D2D06D05D2D0FD00DB12B46F4E7084670BD4E785D2EF8D0B342F6DC023101339E42C454FBDCE9E7104670BD59
:402600002DE9F0470F4680463F48D0F800903D4615F8014B09EB0400407800F0080000F0FF0608B12F46F2E72D2C03D1BD1C7C78012603E02B2C04BF7C78BD1C13B1102BE9
:402640000AD15BE0302C57D1287800F0DF0058284DD16C7810230235002E14BF4FF0004C6FF0004CBCFBF3FA0027384603FB1ACC09EB040E9EF801E01EF0040F01D0303C26
:402680000BE01EF0030E1BD0BEF1010F0CBF4FF0370E4FF0570ECEEB0404A34210DDB7F1FF3F0AD0504506D801D1644503DC03FB0040012701E04FF0FF3715F8014BD7E780
:4026C0007B1C0CD1002E4FF0220314BF4FF000406FF00040C8F800302AB9BDE8F08706B1404272B107B1691E1160BDE8F0873024002BB1D10823AFE70A23ADE7302CA3D07A
:40270000AAE7BDE8F08700BF4C81FF1F2DE9F0470E4680463B48D0F80090354615F8014B09EB0400407800F0080000F0FF0708B12E46F2E72D2C03D1B51C7478012703E093
:402740002B2C04BF7478B51C13B1102B0AD153E0302C4FD1287800F0DF00582845D16C78102302354FF0FF3CBCFBF3FC03FB0CFA00266FEA0A0A304609EB040E9EF801E0FC
:402780001EF0040F01D0303C0BE01EF0030E1AD0BEF1010F0CBF4FF0370E4FF0570ECEEB0404A3420FDD002E08DB604506D801D1544503DC03FB0040012601E04FF0FF36EB
:4027C00015F8014BD8E7002E07DA2223C8F800304FF0FF302AB9BDE8F08707B1404272B106B1691E1160BDE8F0873024002BB9D10823B7E70A23B5E7302CABD0B2E7BDE838
:40280000F08700BF4C81FF1F2DE9F0410C46496B04F1440399421AD14FF4806100F0A2F818B94FF0FF30BDE8F0814FF48063A36394F84630606380F8FF3394F8453000F297
:40284000FD30437094F844300370206012E0A66B77003A4600F0E4F805460028E1D000EB0608014632464046FFF73CF8C4F800806563A7630020BDE8F08110B5C9B2024469
:402880009042034605D01C7801308C42F8D1184610BD002010BD884210B501EB020301D8421E0BE09842FBD28118D21AD34204D013F8014D01F8014DF8E710BD994204D000
:4028C00011F8014B02F8014FF8E710BD38B50546002944D051F8043C0C1F002BB8BFE41800F0D4F81E4A1368114613B96360146030E0A3420DD92268A018834201BF1868AB
:402900005B681218226063600C6023E0A24203D813465A68002AF9D118681918A1420BD12168014458188242196013D110685268014419605A600DE002D90C232B6009E044
:4029400021686018824201BF106852680918216062605C602846BDE8384000F098B838BD8C81FF1F70B5CD1C25F0030508350C2D38BF0C25002D064601DBA94202D90C2382
:40298000336046E000F082F8234B1C681A462146A1B10B685B1B0ED40B2B03D90B60CC18CD501EE08C420BBF63684B681360636018BF0C4615E00C464968E9E7174C236877
:4029C0001BB9304600F052F820602946304600F04DF8431C18D0C41C24F00304A0420DD12560304600F053F804F10B00231D20F00700C31A0ED05A42E25070BD211A3046C3
:402A000000F034F80130EBD10C233360304600F03EF8002070BD00BF8C81FF1F8881FF1FF8B5074615460E4621B91146BDE8F840FFF798BF1AB9FFF749FF2846F8BD00F0A9
:402A400027F885420ED929463846FFF78BFF044650B131462A46FEF745FF31463846FFF735FF01E03046F8BD2046F8BD38B5064C0023054608462360FDF7CAFF431C02D1FE
:402A8000236803B12B6038BDFC81FF1F7047704751F8040C0028BEBF091851F8043CC018043870470000000025632C25642C2564000000004D6F746F7220436D64205265CD
:402AC00063696269646F3A204469723D000000002C2052504D3D000025642C20446973743D00000025640D0A000000004572726F723A20436F6D616E646F206465206D6FEE
:402B0000746F72206D616C666F726D61646F2028657370657261646F204D2C3C6469723E2C3C72706D3E2C3C646973743E292E0D0A00000025642C25640000005365727676
:402B40006F20436D6420526563696269646F3A2053313D0025642C2053323D004572726F723A20436F6D616E646F20646520736572766F206D616C666F726D61646F2E0DE5
:402B80000A0000004572726F723A205469706F20646520636F6D616E646F20646573636F6E6F6369646F2E0D0A00000050536F4320354C50204C6973746F2E2045737065E6
:402BC00072616E646F20636F6D616E646F732E2E2E0D0A004573706572616E646F20636F6D616E646F73000000000000400000001400000054000000C84900401900205114
:402C000000405000F0510040100000000140001000140140000800400140000A004C01400002005001402000605200409C05004806004300232D302B2000686C4C00656620
:402C400067454647003031323334353637383941424344454600303132333435363738396162636465660000862C0000892C00008C2C0000412D46612D6638393031323319
:402C8000343536375D002B2D0030300078580000202020202020202020282828282820202020202020202020202020202020202088101010101010101010101010101010B9
:402CC00004040404040404040404101010101010104141414141410101010101010101010101010101010101010101101010101010424242424242020202020202020202A4
:402D0000020202020202020202020210101010200000000000000000000000000000000000000000000000000000000000000000000000000000000000000000000000001D
:402D40000000000000000000000000000000000000000000000000000000000000000000000000000000000000000000000000000000000000000000000000000000000053
:402D80000000000000000000000000000000000000000000000000000000000000000000000000000000000000000000000000000000000000000000000000000000000013
:402DC000000000000000000000000000000000000000000000000000000000000000000000000000000000000000000000000000F8B500BFF8BC08BC9E4670474D00000007
:402E00008D0A0000F8B500BFF8BC08BC9E46704729000000282E0000C880FF1F88000000B0000000000000000000000027000000200000000082FF1F0000E02EC05D00004D
:402E40001800000000366E0100000000902D0000B02D0000D02D000000000000000000000000000000000000322C00000000000000000000000000000000000000000000A0
:402E800000000000000000000000000000000000000000000000000000000000000000000000000000000000E880FF1F8F2C000000000000000000000000000000000000D1
:402EC00000000000000000000000000000000000000000000000000000000000000000000000000000000000000000000000000000000000000000000000000000000000D2
:402F00000000000000000000000000000000000000000000000000000000000000000000000000000000000000000000000000000000000000000000000000000000000091
:402F40000000000000000000000000000000000000000000000000000000000000000000000000000000000000000000000000000000000000000000000000000000000051
:402F80000000000000000000000000000000000000000000000000000000000000000000000000000000000000000000000000000000000000000000000000000000000011
:020000040003F7
:0200000480007A
:4000000002520040036400400265004045020140240301403D0401402105014032080140240901400115014001170140501801403E1901405E1A0140461B0140024001404D
:400040000641014006420140014301400544014002450140024601400247014003480140024901400B4C01400A4D0140065001400251014000010103830D850D897289386F
:400080008B0F020112022E023001320236014010410649FF4AFF4BFF4DA04F045018528058045A045B045C015D115F01604062C06440654066C068C06AC06CC06EC08F0225
:4000C00097019F01A201A502B201B301B702BF04C040C106C5D0C601C702C816C9FFCAFFCBFFCDAFCE0FCF04D018D405D804D904DA04DB04DC11DD11DF01E040E2C0E44072
:40010000E540E6C0E8C0EAC0ECC0EEC007400E801080158019041C401DC01E801F08224429043140320839804040458049024A084E0850805140520859025A8877408B08C2
:40014000C010C210C488CA02CC0ACE08D011D224D60BE2204030410249FF4AFF4BFF4DA04F0450185A045F01604062C06440654066C068C06AC06CC06EC0830487038A01F2
:4001800096019702A101AA02B101B401B504B602B702BE10C030C102C5D0C620C701C81AC9FFCAFFCBFFCDAFCE0FCF04D018D280D405D804D904DA04DB04DF01E040E2C0D8
:4001C000E440E540E6C0E8C0EAC0ECC0EEC007040F2016041E081F802440268027042F8037043C023E0841204304452047044F015520560C57105C405E085F0174018680E5
:40020000C040C220C440CA80CC40CEC0D066D6D0180128012C01360158045C025F018001811084038518880289088C1F8D1C8E208F21903F941C953C9623970298339A0C42
:400240009B049D3F9E23A008A104A404A80CA927AB18AF23B210B31FB40FB538B62CBAA2BB08BE04D602D712D804D904DB04DC22DD20DF0101C00218038009080A450D101E
:40028000108013141580172019941AC41D401E0320082108222029502B8031083250382839403B01590469A46B2070947315C00FC24FC4CECA0DCC0ECE0FD602EA01E60100
:4002C00004010501061608010A0E0E08141C160319011D021E032A1C2B01320F3303341A39083A28580459045C225F0180088204841888188A028D018E1890189618970194
:4003000099019A209E18A201A601A810AA04AE20AF01B018B201B420B501B606B920BE54C025C104C206C401C5C0C7E0C822C9FFCAFFCBFFCC62CDA0CEF0CF41D00CD41800
:40034000D604D804D904DA04DB04DC22DD22DF01E640E702E910EA30EB10ED10EE10EF12000201A0032004800510071009080A410B040C400E201080122A1720180519099A
:400380001D101E201F042304272029802F04310833203440351038403D0840414244432048844A0152025901608461406520661080808D4091249245962099809E10A0043A
:4003C000A108A221A608A780C0EFC2AFC44FCA28CC36CE48D00DD20CD601D80D00020201050C0801090C0A061508170418041A012104230A240728072D01330C34073502CA
:4004000037013F404003460449FF4A074BFF4C404D204EF04F055008580459045A045C225D025F01604061A8624063208470850D860C8730886C8A118E03945C952896025C
:40044000971198149B209D029E20A010A315A50CA711A809A90DAA10AB10B101B260B33CB502B61FB808BB08BE04BF11C024C103C5EBC6C0C80BC9FFCAFFCBFFCEF0CF4432
:40048000D00CD401D804D904DA04DB04DC22DD22DF01E6C0EA40EB0200020120055007140A080CC40E200F0811141640172019201D482140221C2440250427182820294055
:4004C0002BA02C802E202F20320434043680372039343D08410844404620471448804D014E804F085040524057205C605D015F0888018B80912494809580962099109B204C
:400500009C409D209F10A210A401A504A608A780B148C0EAC2E2C456CAE9CC72CE46D0E2D6F0EA013240CC105101560289019680D480D6203E10860296809E02CE20E61083
:400540009690101014207102C40CDC019830A5029830A5029830A50282409690E680AA10EA8012401320162078107C208D029830A502C40EDE03E408104072207640884046
:400580009A60AB20C408DC01DE04E201000708020A010C0410041C04000303C010300000700000000003030003000000B0004083B300B00000000000000B0B00000000003D
:4005C00000000000000000000000000000000000000000000000000000000000000000000000000000000000000000000000000000000000000000000000000000000000FB
:4006000000000000000000000000000000000000000000000000000000000000000000000000000000000000000000000000000000000000000000000000000000000000BA
:40064000000000000000000000000000000000000000000000000000000000000000000000000000000000000000000000000000000000000000000000000000000000007A
:40068000000000000000000000000000000000000000000000000000000000000000000000000000000000000000000000000000000000000000000000000000000000003A
:0200000490006A
:0400000000004005B7
:0200000490105A
:04000000BC90ACAF55
:0200000490303A
:020000002D06CB
:0200000490402A
:4000000000000000000000000000000000000000000000000000000000000000000000000000000000000000000000000000000000000000000000000000000000000000C0
:400040000000000000000000000000000000000000000000000000000000000000000000000000000000000000000000000000000000000000000000000000000000000080
:400080000000000000000000000000000000000000000000000000000000000000000000000000000000000000000000000000000000000000000000000000000000000040
:4000C0000000000000000000000000000000000000000000000000000000000000000000000000000000000000000000000000000000000000000000000000000000000000
:0200000490501A
:0C00000000012E16106900012E293D6F32
:00000001FF